{"abi":[{"type":"function","name":"allContentIds","inputs":[{"name":"","type":"uint256","internalType":"uint256"}],"outputs":[{"name":"","type":"uint256","internalType":"uint256"}],"stateMutability":"view"},{"type":"function","name":"allCreators","inputs":[{"name":"","type":"uint256","internalType":"uint256"}],"outputs":[{"name":"","type":"address","internalType":"address"}],"stateMutability":"view"},{"type":"function","name":"allVideos","inputs":[{"name":"","type":"uint256","internalType":"uint256"}],"outputs":[{"name":"title","type":"string","internalType":"string"},{"name":"videoCID","type":"string","internalType":"string"},{"name":"thumbnailCID","type":"string","internalType":"string"},{"name":"uploader","type":"address","internalType":"address"},{"name":"timestamp","type":"uint256","internalType":"uint256"}],"stateMutability":"view"},{"type":"function","name":"checkRental","inputs":[{"name":"_user","type":"address","internalType":"address"},{"name":"_contentId","type":"uint256","internalType":"uint256"}],"outputs":[{"name":"","type":"bool","internalType":"bool"}],"stateMutability":"view"},{"type":"function","name":"checkSubscription","inputs":[{"name":"_subscriber","type":"address","internalType":"address"},{"name":"_creator","type":"address","internalType":"address"}],"outputs":[{"name":"","type":"bool","internalType":"bool"}],"stateMutability":"view"},{"type":"function","name":"contents","inputs":[{"name":"","type":"uint256","internalType":"uint256"}],"outputs":[{"name":"id","type":"uint256","internalType":"uint256"},{"name":"creatorAddress","type":"address","internalType":"address"},{"name":"cType","type":"uint8","internalType":"enum CreatorHub.ContentType"},{"name":"metadataURI","type":"string","internalType":"string"},{"name":"isFree","type":"bool","internalType":"bool"},{"name":"fullPrice","type":"uint256","internalType":"uint256"},{"name":"rentedPrice","type":"uint256","internalType":"uint256"},{"name":"paymentToken","type":"address","internalType":"address"},{"name":"active","type":"bool","internalType":"bool"}],"stateMutability":"view"},{"type":"function","name":"createContent","inputs":[{"name":"cType","type":"uint8","internalType":"enum CreatorHub.ContentType"},{"name":"metadataURI","type":"string","internalType":"string"},{"name":"isFree","type":"bool","internalType":"bool"},{"name":"fullPrice","type":"uint256","internalType":"uint256"},{"name":"rentedPrice","type":"uint256","internalType":"uint256"},{"name":"paymentToken","type":"address","internalType":"address"}],"outputs":[{"name":"","type":"uint256","internalType":"uint256"}],"stateMutability":"nonpayable"},{"type":"function","name":"cret","inputs":[{"name":"","type":"address","internalType":"address"}],"outputs":[{"name":"name","type":"string","internalType":"string"},{"name":"wallet","type":"address","internalType":"address"},{"name":"isRegistered","type":"bool","internalType":"bool"},{"name":"subscriptionPrice","type":"uint256","internalType":"uint256"},{"name":"subscriberCount","type":"uint256","internalType":"uint256"},{"name":"totalEarnings","type":"uint256","internalType":"uint256"}],"stateMutability":"view"},{"type":"function","name":"getAllCreators","inputs":[],"outputs":[{"name":"","type":"tuple[]","internalType":"struct CreatorHub.Creator[]","components":[{"name":"name","type":"string","internalType":"string"},{"name":"wallet","type":"address","internalType":"address"},{"name":"isRegistered","type":"bool","internalType":"bool"},{"name":"subscriptionPrice","type":"uint256","internalType":"uint256"},{"name":"subscriberCount","type":"uint256","internalType":"uint256"},{"name":"totalEarnings","type":"uint256","internalType":"uint256"}]}],"stateMutability":"view"},{"type":"function","name":"getChannelName","inputs":[{"name":"_wallet","type":"address","internalType":"address"}],"outputs":[{"name":"","type":"string","internalType":"string"}],"stateMutability":"view"},{"type":"function","name":"getLatestContent","inputs":[{"name":"_limit","type":"uint256","internalType":"uint256"}],"outputs":[{"name":"","type":"tuple[]","internalType":"struct CreatorHub.Content[]","components":[{"name":"id","type":"uint256","internalType":"uint256"},{"name":"creatorAddress","type":"address","internalType":"address"},{"name":"cType","type":"uint8","internalType":"enum CreatorHub.ContentType"},{"name":"metadataURI","type":"string","internalType":"string"},{"name":"isFree","type":"bool","internalType":"bool"},{"name":"fullPrice","type":"uint256","internalType":"uint256"},{"name":"rentedPrice","type":"uint256","internalType":"uint256"},{"name":"paymentToken","type":"address","internalType":"address"},{"name":"active","type":"bool","internalType":"bool"}]}],"stateMutability":"view"},{"type":"function","name":"getLatestVideos","inputs":[{"name":"_limit","type":"uint256","internalType":"uint256"}],"outputs":[{"name":"","type":"tuple[]","internalType":"struct CreatorHub.Video[]","components":[{"name":"title","type":"string","internalType":"string"},{"name":"videoCID","type":"string","internalType":"string"},{"name":"thumbnailCID","type":"string","internalType":"string"},{"name":"uploader","type":"address","internalType":"address"},{"name":"timestamp","type":"uint256","internalType":"uint256"}]}],"stateMutability":"view"},{"type":"function","name":"nextContentId","inputs":[],"outputs":[{"name":"","type":"uint256","internalType":"uint256"}],"stateMutability":"view"},{"type":"function","name":"registerChannel","inputs":[{"name":"_name","type":"string","internalType":"string"}],"outputs":[],"stateMutability":"nonpayable"},{"type":"function","name":"rentContent","inputs":[{"name":"_contentId","type":"uint256","internalType":"uint256"}],"outputs":[],"stateMutability":"payable"},{"type":"function","name":"rentals","inputs":[{"name":"","type":"address","internalType":"address"},{"name":"","type":"uint256","internalType":"uint256"}],"outputs":[{"name":"","type":"uint256","internalType":"uint256"}],"stateMutability":"view"},{"type":"function","name":"setContentActive","inputs":[{"name":"contentId","type":"uint256","internalType":"uint256"},{"name":"status","type":"bool","internalType":"bool"}],"outputs":[],"stateMutability":"nonpayable"},{"type":"function","name":"setSubscriptionPrice","inputs":[{"name":"_price","type":"uint256","internalType":"uint256"}],"outputs":[],"stateMutability":"nonpayable"},{"type":"function","name":"subscribe","inputs":[{"name":"_creator","type":"address","internalType":"address"}],"outputs":[],"stateMutability":"payable"},{"type":"function","name":"subscriptions","inputs":[{"name":"","type":"address","internalType":"address"},{"name":"","type":"address","internalType":"address"}],"outputs":[{"name":"","type":"uint256","internalType":"uint256"}],"stateMutability":"view"},{"type":"function","name":"updateContent","inputs":[{"name":"contentId","type":"uint256","internalType":"uint256"},{"name":"cType","type":"uint8","internalType":"enum CreatorHub.ContentType"},{"name":"metadataURI","type":"string","internalType":"string"},{"name":"fullPrice","type":"uint256","internalType":"uint256"},{"name":"rentedPrice","type":"uint256","internalType":"uint256"},{"name":"paymentToken","type":"address","internalType":"address"},{"name":"isFree","type":"bool","internalType":"bool"}],"outputs":[],"stateMutability":"nonpayable"},{"type":"function","name":"uploadVideo","inputs":[{"name":"_title","type":"string","internalType":"string"},{"name":"_videoCID","type":"string","internalType":"string"},{"name":"_thumbnailCID","type":"string","internalType":"string"}],"outputs":[],"stateMutability":"nonpayable"},{"type":"event","name":"ChannelRegistered","inputs":[{"name":"wallet","type":"address","indexed":true,"internalType":"address"},{"name":"name","type":"string","indexed":false,"internalType":"string"}],"anonymous":false},{"type":"event","name":"ContentCreated","inputs":[{"name":"contentId","type":"uint256","indexed":true,"internalType":"uint256"},{"name":"creator","type":"address","indexed":true,"internalType":"address"},{"name":"metadataURI","type":"string","indexed":false,"internalType":"string"}],"anonymous":false},{"type":"event","name":"ContentRented","inputs":[{"name":"renter","type":"address","indexed":true,"internalType":"address"},{"name":"contentId","type":"uint256","indexed":true,"internalType":"uint256"},{"name":"expiry","type":"uint256","indexed":false,"internalType":"uint256"}],"anonymous":false},{"type":"event","name":"Subscribed","inputs":[{"name":"subscriber","type":"address","indexed":true,"internalType":"address"},{"name":"creator","type":"address","indexed":true,"internalType":"address"},{"name":"expiry","type":"uint256","indexed":false,"internalType":"uint256"}],"anonymous":false},{"type":"event","name":"SubscriptionPriceUpdated","inputs":[{"name":"creator","type":"address","indexed":true,"internalType":"address"},{"name":"newPrice","type":"uint256","indexed":false,"internalType":"uint256"}],"anonymous":false},{"type":"event","name":"VideoUploaded","inputs":[{"name":"videoId","type":"uint256","indexed":true,"internalType":"uint256"},{"name":"uploader","type":"address","indexed":true,"internalType":"address"},{"name":"title","type":"string","indexed":false,"internalType":"string"}],"anonymous":false}],"bytecode":{"object":"0x6080604052348015600e575f5ffd5b506147eb8061001c5f395ff3fe608060405260043610610134575f3560e01c80637d556e75116100aa578063acaebbf61161006e578063acaebbf61461045b578063b5ecf91214610497578063e4572919146104db578063e5805fe01461051b578063ead0234714610543578063f97fac4d1461057f57610134565b80637d556e75146103435780637eb67c311461036b5780638799bd74146103a7578063888e5d9e146103e3578063aba6d14b1461041f57610134565b80632881f092116100fc5780632881f0921461021e5780632d58d0ee1461025a57806341a7726a146102825780634875e9fd1461029e5780635093ab6d146102c65780636207d31b1461030757610134565b8063055b52ec14610138578063090fc58b146101545780630a248d7f146101905780630ca6c2f4146101ba5780631a5ee779146101f6575b5f5ffd5b610152600480360381019061014d9190612e63565b6105a9565b005b34801561015f575f5ffd5b5061017a60048036038101906101759190612ee8565b610a1f565b6040516101879190612f35565b60405180910390f35b34801561019b575f5ffd5b506101a4610a3f565b6040516101b19190612f35565b60405180910390f35b3480156101c5575f5ffd5b506101e060048036038101906101db9190612e63565b610a45565b6040516101ed9190612f35565b60405180910390f35b348015610201575f5ffd5b5061021c60048036038101906102179190612e63565b610a65565b005b348015610229575f5ffd5b50610244600480360381019061023f9190612ee8565b610b86565b6040516102519190612f68565b60405180910390f35b348015610265575f5ffd5b50610280600480360381019061027b91906130bd565b610bde565b005b61029c60048036038101906102979190613104565b610e83565b005b3480156102a9575f5ffd5b506102c460048036038101906102bf919061312f565b611277565b005b3480156102d1575f5ffd5b506102ec60048036038101906102e79190613104565b611464565b6040516102fe96959493929190613242565b60405180910390f35b348015610312575f5ffd5b5061032d600480360381019061032891906132a8565b61154d565b60405161033a9190612f35565b60405180910390f35b34801561034e575f5ffd5b5061036960048036038101906103649190613310565b61156d565b005b348015610376575f5ffd5b50610391600480360381019061038c9190613104565b6116c4565b60405161039e919061334e565b60405180910390f35b3480156103b2575f5ffd5b506103cd60048036038101906103c89190612e63565b611822565b6040516103da9190613510565b60405180910390f35b3480156103ee575f5ffd5b5061040960048036038101906104049190612e63565b611b8c565b6040516104169190613530565b60405180910390f35b34801561042a575f5ffd5b506104456004803603810190610440919061356c565b611bc7565b6040516104529190612f35565b60405180910390f35b348015610466575f5ffd5b50610481600480360381019061047c9190612e63565b61207b565b60405161048e9190613810565b60405180910390f35b3480156104a2575f5ffd5b506104bd60048036038101906104b89190612e63565b6123b1565b6040516104d29998979695949392919061383f565b60405180910390f35b3480156104e6575f5ffd5b5061050160048036038101906104fc9190612e63565b6124e5565b6040516105129594939291906138d1565b60405180910390f35b348015610526575f5ffd5b50610541600480360381019061053c9190613937565b6126d7565b005b34801561054e575f5ffd5b50610569600480360381019061056491906132a8565b612a47565b6040516105769190612f68565b60405180910390f35b34801561058a575f5ffd5b50610593612acb565b6040516105a09190613b31565b60405180910390f35b5f60055f8381526020019081526020015f20604051806101200160405290815f8201548152602001600182015f9054906101000a900473ffffffffffffffffffffffffffffffffffffffff1673ffffffffffffffffffffffffffffffffffffffff1673ffffffffffffffffffffffffffffffffffffffff1681526020016001820160149054906101000a900460ff16600581111561064a5761064961363a565b5b600581111561065c5761065b61363a565b5b815260200160028201805461067090613b7e565b80601f016020809104026020016040519081016040528092919081815260200182805461069c90613b7e565b80156106e75780601f106106be576101008083540402835291602001916106e7565b820191905f5260205f20905b8154815290600101906020018083116106ca57829003601f168201915b50505050508152602001600382015f9054906101000a900460ff161515151581526020016004820154815260200160058201548152602001600682015f9054906101000a900473ffffffffffffffffffffffffffffffffffffffff1673ffffffffffffffffffffffffffffffffffffffff1673ffffffffffffffffffffffffffffffffffffffff1681526020016006820160149054906101000a900460ff16151515158152505090508061010001516107d5576040517f08c379a00000000000000000000000000000000000000000000000000000000081526004016107cc90613bf8565b60405180910390fd5b5f8160c001511161081b576040517f08c379a000000000000000000000000000000000000000000000000000000000815260040161081290613c60565b60405180910390fd5b8060c00151341015610862576040517f08c379a000000000000000000000000000000000000000000000000000000000815260040161085990613cc8565b60405180910390fd5b5f62015180426108729190613d13565b90508060025f3373ffffffffffffffffffffffffffffffffffffffff1673ffffffffffffffffffffffffffffffffffffffff1681526020019081526020015f205f8581526020019081526020015f20819055505f826020015173ffffffffffffffffffffffffffffffffffffffff16346040516108ee90613d73565b5f6040518083038185875af1925050503d805f8114610928576040519150601f19603f3d011682016040523d82523d5f602084013e61092d565b606091505b5050905080610971576040517f08c379a000000000000000000000000000000000000000000000000000000000815260040161096890613dd1565b60405180910390fd5b345f5f856020015173ffffffffffffffffffffffffffffffffffffffff1673ffffffffffffffffffffffffffffffffffffffff1681526020019081526020015f206004015f8282546109c39190613d13565b92505081905550833373ffffffffffffffffffffffffffffffffffffffff167f911cffde7f97da1028a296f1650c29ea2ff658aeffaefd8f401ff640f818712584604051610a119190612f35565b60405180910390a350505050565b6002602052815f5260405f20602052805f5260405f205f91509150505481565b60045481565b60068181548110610a54575f80fd5b905f5260205f20015f915090505481565b5f5f3373ffffffffffffffffffffffffffffffffffffffff1673ffffffffffffffffffffffffffffffffffffffff1681526020019081526020015f2060010160149054906101000a900460ff16610af1576040517f08c379a0000000000000000000000000000000000000000000000000000000008152600401610ae890613e39565b60405180910390fd5b805f5f3373ffffffffffffffffffffffffffffffffffffffff1673ffffffffffffffffffffffffffffffffffffffff1681526020019081526020015f20600201819055503373ffffffffffffffffffffffffffffffffffffffff167fb7f535c0f6a33f444bce1a5c432bbeef81b30471d8b193828baf43ef2b18708382604051610b7b9190612f35565b60405180910390a250565b5f4260025f8573ffffffffffffffffffffffffffffffffffffffff1673ffffffffffffffffffffffffffffffffffffffff1681526020019081526020015f205f8481526020019081526020015f205411905092915050565b5f815111610c21576040517f08c379a0000000000000000000000000000000000000000000000000000000008152600401610c1890613ea1565b60405180910390fd5b5f5f3373ffffffffffffffffffffffffffffffffffffffff1673ffffffffffffffffffffffffffffffffffffffff1681526020019081526020015f2060010160149054906101000a900460ff1615610cae576040517f08c379a0000000000000000000000000000000000000000000000000000000008152600401610ca590613f09565b60405180910390fd5b6040518060c001604052808281526020013373ffffffffffffffffffffffffffffffffffffffff16815260200160011515815260200166038d7ea4c6800081526020015f81526020015f8152505f5f3373ffffffffffffffffffffffffffffffffffffffff1673ffffffffffffffffffffffffffffffffffffffff1681526020019081526020015f205f820151815f019081610d4a91906140c7565b506020820151816001015f6101000a81548173ffffffffffffffffffffffffffffffffffffffff021916908373ffffffffffffffffffffffffffffffffffffffff16021790555060408201518160010160146101000a81548160ff021916908315150217905550606082015181600201556080820151816003015560a08201518160040155905050600733908060018154018082558091505060019003905f5260205f20015f9091909190916101000a81548173ffffffffffffffffffffffffffffffffffffffff021916908373ffffffffffffffffffffffffffffffffffffffff1602179055503373ffffffffffffffffffffffffffffffffffffffff167f276ae62e19d992282d28a4512c2330337f38c431d6cb0a190266eb7899ffb14b82604051610e78919061334e565b60405180910390a250565b5f5f8273ffffffffffffffffffffffffffffffffffffffff1673ffffffffffffffffffffffffffffffffffffffff1681526020019081526020015f2060010160149054906101000a900460ff16610f0f576040517f08c379a0000000000000000000000000000000000000000000000000000000008152600401610f06906141e0565b60405180910390fd5b5f5f8273ffffffffffffffffffffffffffffffffffffffff1673ffffffffffffffffffffffffffffffffffffffff1681526020019081526020015f2060020154341015610f91576040517f08c379a0000000000000000000000000000000000000000000000000000000008152600401610f8890613cc8565b60405180910390fd5b5f60015f3373ffffffffffffffffffffffffffffffffffffffff1673ffffffffffffffffffffffffffffffffffffffff1681526020019081526020015f205f8373ffffffffffffffffffffffffffffffffffffffff1673ffffffffffffffffffffffffffffffffffffffff1681526020019081526020015f205490505f4282111561102c5762278d00826110259190613d13565b905061103e565b62278d004261103b9190613d13565b90505b8060015f3373ffffffffffffffffffffffffffffffffffffffff1673ffffffffffffffffffffffffffffffffffffffff1681526020019081526020015f205f8573ffffffffffffffffffffffffffffffffffffffff1673ffffffffffffffffffffffffffffffffffffffff1681526020019081526020015f20819055505f8373ffffffffffffffffffffffffffffffffffffffff16346040516110e090613d73565b5f6040518083038185875af1925050503d805f811461111a576040519150601f19603f3d011682016040523d82523d5f602084013e61111f565b606091505b5050905080611163576040517f08c379a000000000000000000000000000000000000000000000000000000000815260040161115a90613dd1565b60405180910390fd5b5f5f8573ffffffffffffffffffffffffffffffffffffffff1673ffffffffffffffffffffffffffffffffffffffff1681526020019081526020015f206003015f8154809291906111b2906141fe565b9190505550345f5f8673ffffffffffffffffffffffffffffffffffffffff1673ffffffffffffffffffffffffffffffffffffffff1681526020019081526020015f206004015f8282546112059190613d13565b925050819055508373ffffffffffffffffffffffffffffffffffffffff163373ffffffffffffffffffffffffffffffffffffffff167f1299b0ad0a8e7c2403716ae6507195ba96bd8cac7f49d8c129e18f9ae51374f0846040516112699190612f35565b60405180910390a350505050565b5f5f3373ffffffffffffffffffffffffffffffffffffffff1673ffffffffffffffffffffffffffffffffffffffff1681526020019081526020015f2060010160149054906101000a900460ff16611303576040517f08c379a00000000000000000000000000000000000000000000000000000000081526004016112fa9061428f565b60405180910390fd5b5f6040518060a001604052808581526020018481526020018381526020013373ffffffffffffffffffffffffffffffffffffffff168152602001428152509050600381908060018154018082558091505060019003905f5260205f2090600502015f909190919091505f820151815f01908161137f91906140c7565b50602082015181600101908161139591906140c7565b5060408201518160020190816113ab91906140c7565b506060820151816003015f6101000a81548173ffffffffffffffffffffffffffffffffffffffff021916908373ffffffffffffffffffffffffffffffffffffffff1602179055506080820151816004015550503373ffffffffffffffffffffffffffffffffffffffff16600160038054905061142791906142ad565b7f914131121ce37b9b876b9e7ff21f008ec2799db04096a542b4b7e67f80af1d1386604051611456919061334e565b60405180910390a350505050565b5f602052805f5260405f205f91509050805f01805461148290613b7e565b80601f01602080910402602001604051908101604052809291908181526020018280546114ae90613b7e565b80156114f95780601f106114d0576101008083540402835291602001916114f9565b820191905f5260205f20905b8154815290600101906020018083116114dc57829003601f168201915b505050505090806001015f9054906101000a900473ffffffffffffffffffffffffffffffffffffffff16908060010160149054906101000a900460ff16908060020154908060030154908060040154905086565b6001602052815f5260405f20602052805f5260405f205f91509150505481565b5f60055f8481526020019081526020015f2090505f73ffffffffffffffffffffffffffffffffffffffff16816001015f9054906101000a900473ffffffffffffffffffffffffffffffffffffffff1673ffffffffffffffffffffffffffffffffffffffff1603611612576040517f08c379a00000000000000000000000000000000000000000000000000000000081526004016116099061432a565b60405180910390fd5b3373ffffffffffffffffffffffffffffffffffffffff16816001015f9054906101000a900473ffffffffffffffffffffffffffffffffffffffff1673ffffffffffffffffffffffffffffffffffffffff16146116a3576040517f08c379a000000000000000000000000000000000000000000000000000000000815260040161169a906143b8565b60405180910390fd5b818160060160146101000a81548160ff021916908315150217905550505050565b60605f5f8373ffffffffffffffffffffffffffffffffffffffff1673ffffffffffffffffffffffffffffffffffffffff1681526020019081526020015f2060010160149054906101000a900460ff16156117e4575f5f8373ffffffffffffffffffffffffffffffffffffffff1673ffffffffffffffffffffffffffffffffffffffff1681526020019081526020015f205f01805461176190613b7e565b80601f016020809104026020016040519081016040528092919081815260200182805461178d90613b7e565b80156117d85780601f106117af576101008083540402835291602001916117d8565b820191905f5260205f20905b8154815290600101906020018083116117bb57829003601f168201915b5050505050905061181d565b6040518060400160405280600f81526020017f556e6b6e6f776e204368616e6e656c000000000000000000000000000000000081525090505b919050565b60605f60038054905090505f8103611890575f67ffffffffffffffff81111561184e5761184d612f99565b5b60405190808252806020026020018201604052801561188757816020015b611874612d0d565b81526020019060019003908161186c5790505b50915050611b87565b5f839050818111156118a0578190505b5f8167ffffffffffffffff8111156118bb576118ba612f99565b5b6040519080825280602002602001820160405280156118f457816020015b6118e1612d0d565b8152602001906001900390816118d95790505b5090505f5f90505b82811015611b7f5760038160018661191491906142ad565b61191e91906142ad565b8154811061192f5761192e6143d6565b5b905f5260205f2090600502016040518060a00160405290815f8201805461195590613b7e565b80601f016020809104026020016040519081016040528092919081815260200182805461198190613b7e565b80156119cc5780601f106119a3576101008083540402835291602001916119cc565b820191905f5260205f20905b8154815290600101906020018083116119af57829003601f168201915b505050505081526020016001820180546119e590613b7e565b80601f0160208091040260200160405190810160405280929190818152602001828054611a1190613b7e565b8015611a5c5780601f10611a3357610100808354040283529160200191611a5c565b820191905f5260205f20905b815481529060010190602001808311611a3f57829003601f168201915b50505050508152602001600282018054611a7590613b7e565b80601f0160208091040260200160405190810160405280929190818152602001828054611aa190613b7e565b8015611aec5780601f10611ac357610100808354040283529160200191611aec565b820191905f5260205f20905b815481529060010190602001808311611acf57829003601f168201915b50505050508152602001600382015f9054906101000a900473ffffffffffffffffffffffffffffffffffffffff1673ffffffffffffffffffffffffffffffffffffffff1673ffffffffffffffffffffffffffffffffffffffff168152602001600482015481525050828281518110611b6757611b666143d6565b5b602002602001018190525080806001019150506118fc565b508093505050505b919050565b60078181548110611b9b575f80fd5b905f5260205f20015f915054906101000a900473ffffffffffffffffffffffffffffffffffffffff1681565b5f5f5f3373ffffffffffffffffffffffffffffffffffffffff1673ffffffffffffffffffffffffffffffffffffffff1681526020019081526020015f2060010160149054906101000a900460ff16611c54576040517f08c379a0000000000000000000000000000000000000000000000000000000008152600401611c4b90614473565b60405180910390fd5b5f865111611c97576040517f08c379a0000000000000000000000000000000000000000000000000000000008152600401611c8e906144db565b60405180910390fd5b8415611d26575f8414611cdf576040517f08c379a0000000000000000000000000000000000000000000000000000000008152600401611cd690614543565b60405180910390fd5b5f8314611d21576040517f08c379a0000000000000000000000000000000000000000000000000000000008152600401611d18906145d1565b60405180910390fd5b611e1a565b5f73ffffffffffffffffffffffffffffffffffffffff168273ffffffffffffffffffffffffffffffffffffffff1603611d94576040517f08c379a0000000000000000000000000000000000000000000000000000000008152600401611d8b90614639565b60405180910390fd5b5f8311611dd6576040517f08c379a0000000000000000000000000000000000000000000000000000000008152600401611dcd906146a1565b60405180910390fd5b82841015611e19576040517f08c379a0000000000000000000000000000000000000000000000000000000008152600401611e1090614709565b60405180910390fd5b5b5f60045f815480929190611e2d906141fe565b919050559050600681908060018154018082558091505060019003905f5260205f20015f90919091909150556040518061012001604052808281526020013373ffffffffffffffffffffffffffffffffffffffff168152602001896005811115611e9a57611e9961363a565b5b815260200188815260200187151581526020018681526020018581526020018473ffffffffffffffffffffffffffffffffffffffff1681526020016001151581525060055f8381526020019081526020015f205f820151815f01556020820151816001015f6101000a81548173ffffffffffffffffffffffffffffffffffffffff021916908373ffffffffffffffffffffffffffffffffffffffff16021790555060408201518160010160146101000a81548160ff02191690836005811115611f6657611f6561363a565b5b02179055506060820151816002019081611f8091906140c7565b506080820151816003015f6101000a81548160ff02191690831515021790555060a0820151816004015560c0820151816005015560e0820151816006015f6101000a81548173ffffffffffffffffffffffffffffffffffffffff021916908373ffffffffffffffffffffffffffffffffffffffff1602179055506101008201518160060160146101000a81548160ff0219169083151502179055509050503373ffffffffffffffffffffffffffffffffffffffff16817fbacf9f620fd10df5b39931f2a3012e753be545aba5d7642b9bdb59b527709f1d89604051612065919061334e565b60405180910390a3809150509695505050505050565b60605f60068054905090505f81036120e9575f67ffffffffffffffff8111156120a7576120a6612f99565b5b6040519080825280602002602001820160405280156120e057816020015b6120cd612d50565b8152602001906001900390816120c55790505b509150506123ac565b5f839050818111156120f9578190505b5f8167ffffffffffffffff81111561211457612113612f99565b5b60405190808252806020026020018201604052801561214d57816020015b61213a612d50565b8152602001906001900390816121325790505b5090505f5f90505b828110156123a4575f60068260018761216e91906142ad565b61217891906142ad565b81548110612189576121886143d6565b5b905f5260205f200154905060055f8281526020019081526020015f20604051806101200160405290815f8201548152602001600182015f9054906101000a900473ffffffffffffffffffffffffffffffffffffffff1673ffffffffffffffffffffffffffffffffffffffff1673ffffffffffffffffffffffffffffffffffffffff1681526020016001820160149054906101000a900460ff1660058111156122345761223361363a565b5b60058111156122465761224561363a565b5b815260200160028201805461225a90613b7e565b80601f016020809104026020016040519081016040528092919081815260200182805461228690613b7e565b80156122d15780601f106122a8576101008083540402835291602001916122d1565b820191905f5260205f20905b8154815290600101906020018083116122b457829003601f168201915b50505050508152602001600382015f9054906101000a900460ff161515151581526020016004820154815260200160058201548152602001600682015f9054906101000a900473ffffffffffffffffffffffffffffffffffffffff1673ffffffffffffffffffffffffffffffffffffffff1673ffffffffffffffffffffffffffffffffffffffff1681526020016006820160149054906101000a900460ff16151515158152505083838151811061238b5761238a6143d6565b5b6020026020010181905250508080600101915050612155565b508093505050505b919050565b6005602052805f5260405f205f91509050805f015490806001015f9054906101000a900473ffffffffffffffffffffffffffffffffffffffff16908060010160149054906101000a900460ff169080600201805461240e90613b7e565b80601f016020809104026020016040519081016040528092919081815260200182805461243a90613b7e565b80156124855780601f1061245c57610100808354040283529160200191612485565b820191905f5260205f20905b81548152906001019060200180831161246857829003601f168201915b505050505090806003015f9054906101000a900460ff1690806004015490806005015490806006015f9054906101000a900473ffffffffffffffffffffffffffffffffffffffff16908060060160149054906101000a900460ff16905089565b600381815481106124f4575f80fd5b905f5260205f2090600502015f91509050805f01805461251390613b7e565b80601f016020809104026020016040519081016040528092919081815260200182805461253f90613b7e565b801561258a5780601f106125615761010080835404028352916020019161258a565b820191905f5260205f20905b81548152906001019060200180831161256d57829003601f168201915b50505050509080600101805461259f90613b7e565b80601f01602080910402602001604051908101604052809291908181526020018280546125cb90613b7e565b80156126165780601f106125ed57610100808354040283529160200191612616565b820191905f5260205f20905b8154815290600101906020018083116125f957829003601f168201915b50505050509080600201805461262b90613b7e565b80601f016020809104026020016040519081016040528092919081815260200182805461265790613b7e565b80156126a25780601f10612679576101008083540402835291602001916126a2565b820191905f5260205f20905b81548152906001019060200180831161268557829003601f168201915b505050505090806003015f9054906101000a900473ffffffffffffffffffffffffffffffffffffffff16908060040154905085565b5f60055f8981526020019081526020015f2090505f73ffffffffffffffffffffffffffffffffffffffff16816001015f9054906101000a900473ffffffffffffffffffffffffffffffffffffffff1673ffffffffffffffffffffffffffffffffffffffff160361277c576040517f08c379a00000000000000000000000000000000000000000000000000000000081526004016127739061432a565b60405180910390fd5b3373ffffffffffffffffffffffffffffffffffffffff16816001015f9054906101000a900473ffffffffffffffffffffffffffffffffffffffff1673ffffffffffffffffffffffffffffffffffffffff161461280d576040517f08c379a000000000000000000000000000000000000000000000000000000000815260040161280490614797565b60405180910390fd5b811561289c575f8514612855576040517f08c379a000000000000000000000000000000000000000000000000000000000815260040161284c90614543565b60405180910390fd5b5f8414612897576040517f08c379a000000000000000000000000000000000000000000000000000000000815260040161288e906145d1565b60405180910390fd5b612990565b5f73ffffffffffffffffffffffffffffffffffffffff168373ffffffffffffffffffffffffffffffffffffffff160361290a576040517f08c379a000000000000000000000000000000000000000000000000000000000815260040161290190614639565b60405180910390fd5b5f841161294c576040517f08c379a0000000000000000000000000000000000000000000000000000000008152600401612943906146a1565b60405180910390fd5b8385101561298f576040517f08c379a000000000000000000000000000000000000000000000000000000000815260040161298690614709565b60405180910390fd5b5b868160010160146101000a81548160ff021916908360058111156129b7576129b661363a565b5b0217905550858160020190816129cd91906140c7565b5081816003015f6101000a81548160ff02191690831515021790555084816004018190555083816005018190555082816006015f6101000a81548173ffffffffffffffffffffffffffffffffffffffff021916908373ffffffffffffffffffffffffffffffffffffffff1602179055505050505050505050565b5f4260015f8573ffffffffffffffffffffffffffffffffffffffff1673ffffffffffffffffffffffffffffffffffffffff1681526020019081526020015f205f8473ffffffffffffffffffffffffffffffffffffffff1673ffffffffffffffffffffffffffffffffffffffff1681526020019081526020015f205411905092915050565b60605f60078054905090505f8167ffffffffffffffff811115612af157612af0612f99565b5b604051908082528060200260200182016040528015612b2a57816020015b612b17612dd6565b815260200190600190039081612b0f5790505b5090505f5f90505b82811015612d04575f5f60078381548110612b5057612b4f6143d6565b5b905f5260205f20015f9054906101000a900473ffffffffffffffffffffffffffffffffffffffff1673ffffffffffffffffffffffffffffffffffffffff1673ffffffffffffffffffffffffffffffffffffffff1681526020019081526020015f206040518060c00160405290815f82018054612bcb90613b7e565b80601f0160208091040260200160405190810160405280929190818152602001828054612bf790613b7e565b8015612c425780601f10612c1957610100808354040283529160200191612c42565b820191905f5260205f20905b815481529060010190602001808311612c2557829003601f168201915b50505050508152602001600182015f9054906101000a900473ffffffffffffffffffffffffffffffffffffffff1673ffffffffffffffffffffffffffffffffffffffff1673ffffffffffffffffffffffffffffffffffffffff1681526020016001820160149054906101000a900460ff161515151581526020016002820154815260200160038201548152602001600482015481525050828281518110612cec57612ceb6143d6565b5b60200260200101819052508080600101915050612b32565b50809250505090565b6040518060a001604052806060815260200160608152602001606081526020015f73ffffffffffffffffffffffffffffffffffffffff1681526020015f81525090565b6040518061012001604052805f81526020015f73ffffffffffffffffffffffffffffffffffffffff1681526020015f6005811115612d9157612d9061363a565b5b8152602001606081526020015f151581526020015f81526020015f81526020015f73ffffffffffffffffffffffffffffffffffffffff1681526020015f151581525090565b6040518060c00160405280606081526020015f73ffffffffffffffffffffffffffffffffffffffff1681526020015f151581526020015f81526020015f81526020015f81525090565b5f604051905090565b5f5ffd5b5f5ffd5b5f819050919050565b612e4281612e30565b8114612e4c575f5ffd5b50565b5f81359050612e5d81612e39565b92915050565b5f60208284031215612e7857612e77612e28565b5b5f612e8584828501612e4f565b91505092915050565b5f73ffffffffffffffffffffffffffffffffffffffff82169050919050565b5f612eb782612e8e565b9050919050565b612ec781612ead565b8114612ed1575f5ffd5b50565b5f81359050612ee281612ebe565b92915050565b5f5f60408385031215612efe57612efd612e28565b5b5f612f0b85828601612ed4565b9250506020612f1c85828601612e4f565b9150509250929050565b612f2f81612e30565b82525050565b5f602082019050612f485f830184612f26565b92915050565b5f8115159050919050565b612f6281612f4e565b82525050565b5f602082019050612f7b5f830184612f59565b92915050565b5f5ffd5b5f5ffd5b5f601f19601f8301169050919050565b7f4e487b71000000000000000000000000000000000000000000000000000000005f52604160045260245ffd5b612fcf82612f89565b810181811067ffffffffffffffff82111715612fee57612fed612f99565b5b80604052505050565b5f613000612e1f565b905061300c8282612fc6565b919050565b5f67ffffffffffffffff82111561302b5761302a612f99565b5b61303482612f89565b9050602081019050919050565b828183375f83830152505050565b5f61306161305c84613011565b612ff7565b90508281526020810184848401111561307d5761307c612f85565b5b613088848285613041565b509392505050565b5f82601f8301126130a4576130a3612f81565b5b81356130b484826020860161304f565b91505092915050565b5f602082840312156130d2576130d1612e28565b5b5f82013567ffffffffffffffff8111156130ef576130ee612e2c565b5b6130fb84828501613090565b91505092915050565b5f6020828403121561311957613118612e28565b5b5f61312684828501612ed4565b91505092915050565b5f5f5f6060848603121561314657613145612e28565b5b5f84013567ffffffffffffffff81111561316357613162612e2c565b5b61316f86828701613090565b935050602084013567ffffffffffffffff8111156131905761318f612e2c565b5b61319c86828701613090565b925050604084013567ffffffffffffffff8111156131bd576131bc612e2c565b5b6131c986828701613090565b9150509250925092565b5f81519050919050565b5f82825260208201905092915050565b8281835e5f83830152505050565b5f613205826131d3565b61320f81856131dd565b935061321f8185602086016131ed565b61322881612f89565b840191505092915050565b61323c81612ead565b82525050565b5f60c0820190508181035f83015261325a81896131fb565b90506132696020830188613233565b6132766040830187612f59565b6132836060830186612f26565b6132906080830185612f26565b61329d60a0830184612f26565b979650505050505050565b5f5f604083850312156132be576132bd612e28565b5b5f6132cb85828601612ed4565b92505060206132dc85828601612ed4565b9150509250929050565b6132ef81612f4e565b81146132f9575f5ffd5b50565b5f8135905061330a816132e6565b92915050565b5f5f6040838503121561332657613325612e28565b5b5f61333385828601612e4f565b9250506020613344858286016132fc565b9150509250929050565b5f6020820190508181035f83015261336681846131fb565b905092915050565b5f81519050919050565b5f82825260208201905092915050565b5f819050602082019050919050565b5f82825260208201905092915050565b5f6133b1826131d3565b6133bb8185613397565b93506133cb8185602086016131ed565b6133d481612f89565b840191505092915050565b6133e881612ead565b82525050565b6133f781612e30565b82525050565b5f60a083015f8301518482035f86015261341782826133a7565b9150506020830151848203602086015261343182826133a7565b9150506040830151848203604086015261344b82826133a7565b915050606083015161346060608601826133df565b50608083015161347360808601826133ee565b508091505092915050565b5f61348983836133fd565b905092915050565b5f602082019050919050565b5f6134a78261336e565b6134b18185613378565b9350836020820285016134c385613388565b805f5b858110156134fe57848403895281516134df858261347e565b94506134ea83613491565b925060208a019950506001810190506134c6565b50829750879550505050505092915050565b5f6020820190508181035f830152613528818461349d565b905092915050565b5f6020820190506135435f830184613233565b92915050565b60068110613555575f5ffd5b50565b5f8135905061356681613549565b92915050565b5f5f5f5f5f5f60c0878903121561358657613585612e28565b5b5f61359389828a01613558565b965050602087013567ffffffffffffffff8111156135b4576135b3612e2c565b5b6135c089828a01613090565b95505060406135d189828a016132fc565b94505060606135e289828a01612e4f565b93505060806135f389828a01612e4f565b92505060a061360489828a01612ed4565b9150509295509295509295565b5f81519050919050565b5f82825260208201905092915050565b5f819050602082019050919050565b7f4e487b71000000000000000000000000000000000000000000000000000000005f52602160045260245ffd5b600681106136785761367761363a565b5b50565b5f81905061368882613667565b919050565b5f6136978261367b565b9050919050565b6136a78161368d565b82525050565b6136b681612f4e565b82525050565b5f61012083015f8301516136d25f8601826133ee565b5060208301516136e560208601826133df565b5060408301516136f8604086018261369e565b506060830151848203606086015261371082826133a7565b915050608083015161372560808601826136ad565b5060a083015161373860a08601826133ee565b5060c083015161374b60c08601826133ee565b5060e083015161375e60e08601826133df565b506101008301516137736101008601826136ad565b508091505092915050565b5f61378983836136bc565b905092915050565b5f602082019050919050565b5f6137a782613611565b6137b1818561361b565b9350836020820285016137c38561362b565b805f5b858110156137fe57848403895281516137df858261377e565b94506137ea83613791565b925060208a019950506001810190506137c6565b50829750879550505050505092915050565b5f6020820190508181035f830152613828818461379d565b905092915050565b6138398161368d565b82525050565b5f610120820190506138535f83018c612f26565b613860602083018b613233565b61386d604083018a613830565b818103606083015261387f81896131fb565b905061388e6080830188612f59565b61389b60a0830187612f26565b6138a860c0830186612f26565b6138b560e0830185613233565b6138c3610100830184612f59565b9a9950505050505050505050565b5f60a0820190508181035f8301526138e981886131fb565b905081810360208301526138fd81876131fb565b9050818103604083015261391181866131fb565b90506139206060830185613233565b61392d6080830184612f26565b9695505050505050565b5f5f5f5f5f5f5f60e0888a03121561395257613951612e28565b5b5f61395f8a828b01612e4f565b97505060206139708a828b01613558565b965050604088013567ffffffffffffffff81111561399157613990612e2c565b5b61399d8a828b01613090565b95505060606139ae8a828b01612e4f565b94505060806139bf8a828b01612e4f565b93505060a06139d08a828b01612ed4565b92505060c06139e18a828b016132fc565b91505092959891949750929550565b5f81519050919050565b5f82825260208201905092915050565b5f819050602082019050919050565b5f60c083015f8301518482035f860152613a3382826133a7565b9150506020830151613a4860208601826133df565b506040830151613a5b60408601826136ad565b506060830151613a6e60608601826133ee565b506080830151613a8160808601826133ee565b5060a0830151613a9460a08601826133ee565b508091505092915050565b5f613aaa8383613a19565b905092915050565b5f602082019050919050565b5f613ac8826139f0565b613ad281856139fa565b935083602082028501613ae485613a0a565b805f5b85811015613b1f5784840389528151613b008582613a9f565b9450613b0b83613ab2565b925060208a01995050600181019050613ae7565b50829750879550505050505092915050565b5f6020820190508181035f830152613b498184613abe565b905092915050565b7f4e487b71000000000000000000000000000000000000000000000000000000005f52602260045260245ffd5b5f6002820490506001821680613b9557607f821691505b602082108103613ba857613ba7613b51565b5b50919050565b7f436f6e74656e74206e6f742061637469766500000000000000000000000000005f82015250565b5f613be26012836131dd565b9150613bed82613bae565b602082019050919050565b5f6020820190508181035f830152613c0f81613bd6565b9050919050565b7f436f6e74656e74206e6f7420666f722072656e740000000000000000000000005f82015250565b5f613c4a6014836131dd565b9150613c5582613c16565b602082019050919050565b5f6020820190508181035f830152613c7781613c3e565b9050919050565b7f496e73756666696369656e74207061796d656e740000000000000000000000005f82015250565b5f613cb26014836131dd565b9150613cbd82613c7e565b602082019050919050565b5f6020820190508181035f830152613cdf81613ca6565b9050919050565b7f4e487b71000000000000000000000000000000000000000000000000000000005f52601160045260245ffd5b5f613d1d82612e30565b9150613d2883612e30565b9250828201905080821115613d4057613d3f613ce6565b5b92915050565b5f81905092915050565b50565b5f613d5e5f83613d46565b9150613d6982613d50565b5f82019050919050565b5f613d7d82613d53565b9150819050919050565b7f4661696c656420746f2073656e642045746865720000000000000000000000005f82015250565b5f613dbb6014836131dd565b9150613dc682613d87565b602082019050919050565b5f6020820190508181035f830152613de881613daf565b9050919050565b7f4e6f7420726567697374657265640000000000000000000000000000000000005f82015250565b5f613e23600e836131dd565b9150613e2e82613def565b602082019050919050565b5f6020820190508181035f830152613e5081613e17565b9050919050565b7f4e616d65207265717569726564000000000000000000000000000000000000005f82015250565b5f613e8b600d836131dd565b9150613e9682613e57565b602082019050919050565b5f6020820190508181035f830152613eb881613e7f565b9050919050565b7f416c7265616479207265676973746572656400000000000000000000000000005f82015250565b5f613ef36012836131dd565b9150613efe82613ebf565b602082019050919050565b5f6020820190508181035f830152613f2081613ee7565b9050919050565b5f819050815f5260205f209050919050565b5f6020601f8301049050919050565b5f82821b905092915050565b5f60088302613f837fffffffffffffffffffffffffffffffffffffffffffffffffffffffffffffffff82613f48565b613f8d8683613f48565b95508019841693508086168417925050509392505050565b5f819050919050565b5f613fc8613fc3613fbe84612e30565b613fa5565b612e30565b9050919050565b5f819050919050565b613fe183613fae565b613ff5613fed82613fcf565b848454613f54565b825550505050565b5f5f905090565b61400c613ffd565b614017818484613fd8565b505050565b5b8181101561403a5761402f5f82614004565b60018101905061401d565b5050565b601f82111561407f5761405081613f27565b61405984613f39565b81016020851015614068578190505b61407c61407485613f39565b83018261401c565b50505b505050565b5f82821c905092915050565b5f61409f5f1984600802614084565b1980831691505092915050565b5f6140b78383614090565b9150826002028217905092915050565b6140d0826131d3565b67ffffffffffffffff8111156140e9576140e8612f99565b5b6140f38254613b7e565b6140fe82828561403e565b5f60209050601f83116001811461412f575f841561411d578287015190505b61412785826140ac565b86555061418e565b601f19841661413d86613f27565b5f5b828110156141645784890151825560018201915060208501945060208101905061413f565b86831015614181578489015161417d601f891682614090565b8355505b6001600288020188555050505b505050505050565b7f43726561746f72206e6f742072656769737465726564000000000000000000005f82015250565b5f6141ca6016836131dd565b91506141d582614196565b602082019050919050565b5f6020820190508181035f8301526141f7816141be565b9050919050565b5f61420882612e30565b91507fffffffffffffffffffffffffffffffffffffffffffffffffffffffffffffffff820361423a57614239613ce6565b5b600182019050919050565b7f4d757374207265676973746572206368616e6e656c20666972737400000000005f82015250565b5f614279601b836131dd565b915061428482614245565b602082019050919050565b5f6020820190508181035f8301526142a68161426d565b9050919050565b5f6142b782612e30565b91506142c283612e30565b92508282039050818111156142da576142d9613ce6565b5b92915050565b7f436f6e74656e7420646f6573206e6f74206578697374000000000000000000005f82015250565b5f6143146016836131dd565b915061431f826142e0565b602082019050919050565b5f6020820190508181035f83015261434181614308565b9050919050565b7f4f6e6c792074686520636f6e74656e742063726561746f722063616e207570645f8201527f6174652069747320737461747573000000000000000000000000000000000000602082015250565b5f6143a2602e836131dd565b91506143ad82614348565b604082019050919050565b5f6020820190508181035f8301526143cf81614396565b9050919050565b7f4e487b71000000000000000000000000000000000000000000000000000000005f52603260045260245ffd5b7f4f6e6c7920726567697374657265642063726561746f72732063616e206372655f8201527f61746520636f6e74656e74000000000000000000000000000000000000000000602082015250565b5f61445d602b836131dd565b915061446882614403565b604082019050919050565b5f6020820190508181035f83015261448a81614451565b9050919050565b7f496e76616c6964206d65746164617461555249000000000000000000000000005f82015250565b5f6144c56013836131dd565b91506144d082614491565b602082019050919050565b5f6020820190508181035f8301526144f2816144b9565b9050919050565b7f4672656520636f6e74656e742066756c6c5072696365206d75737420626520305f82015250565b5f61452d6020836131dd565b9150614538826144f9565b602082019050919050565b5f6020820190508181035f83015261455a81614521565b9050919050565b7f4672656520636f6e74656e742072656e7465645072696365206d7573742062655f8201527f2030000000000000000000000000000000000000000000000000000000000000602082015250565b5f6145bb6022836131dd565b91506145c682614561565b604082019050919050565b5f6020820190508181035f8301526145e8816145af565b9050919050565b7f5061796d656e7420746f6b656e207265717569726564000000000000000000005f82015250565b5f6146236016836131dd565b915061462e826145ef565b602082019050919050565b5f6020820190508181035f83015261465081614617565b9050919050565b7f72656e7465645072696365206d757374206265203e20300000000000000000005f82015250565b5f61468b6017836131dd565b915061469682614657565b602082019050919050565b5f6020820190508181035f8301526146b88161467f565b9050919050565b7f66756c6c5072696365206d757374206265203e3d2072656e74656450726963655f82015250565b5f6146f36020836131dd565b91506146fe826146bf565b602082019050919050565b5f6020820190508181035f830152614720816146e7565b9050919050565b7f4f6e6c792074686520636f6e74656e742063726561746f722063616e207570645f8201527f6174650000000000000000000000000000000000000000000000000000000000602082015250565b5f6147816023836131dd565b915061478c82614727565b604082019050919050565b5f6020820190508181035f8301526147ae81614775565b905091905056fea2646970667358221220e676fe914f02c69e6001e8f1675a423f46ad2eb256e6eaba77acf62b8ac948cc64736f6c634300081e0033","linkReferences":{}},"methodIdentifiers":{"allContentIds(uint256)":"0ca6c2f4","allCreators(uint256)":"888e5d9e","allVideos(uint256)":"e4572919","checkRental(address,uint256)":"2881f092","checkSubscription(address,address)":"ead02347","contents(uint256)":"b5ecf912","createContent(uint8,string,bool,uint256,uint256,address)":"aba6d14b","cret(address)":"5093ab6d","getAllCreators()":"f97fac4d","getChannelName(address)":"7eb67c31","getLatestContent(uint256)":"acaebbf6","getLatestVideos(uint256)":"8799bd74","nextContentId()":"0a248d7f","registerChannel(string)":"2d58d0ee","rentContent(uint256)":"055b52ec","rentals(address,uint256)":"090fc58b","setContentActive(uint256,bool)":"7d556e75","setSubscriptionPrice(uint256)":"1a5ee779","subscribe(address)":"41a7726a","subscriptions(address,address)":"6207d31b","updateContent(uint256,uint8,string,uint256,uint256,address,bool)":"e5805fe0","uploadVideo(string,string,string)":"4875e9fd"},"id":16}