{"abi":[{"type":"function","name":"allContentIds","inputs":[{"name":"","type":"uint256","internalType":"uint256"}],"outputs":[{"name":"","type":"uint256","internalType":"uint256"}],"stateMutability":"view"},{"type":"function","name":"allCreators","inputs":[{"name":"","type":"uint256","internalType":"uint256"}],"outputs":[{"name":"","type":"address","internalType":"address"}],"stateMutability":"view"},{"type":"function","name":"allVideos","inputs":[{"name":"","type":"uint256","internalType":"uint256"}],"outputs":[{"name":"title","type":"string","internalType":"string"},{"name":"videoCID","type":"string","internalType":"string"},{"name":"thumbnailCID","type":"string","internalType":"string"},{"name":"uploader","type":"address","internalType":"address"},{"name":"timestamp","type":"uint256","internalType":"uint256"}],"stateMutability":"view"},{"type":"function","name":"checkSubscription","inputs":[{"name":"_subscriber","type":"address","internalType":"address"},{"name":"_creator","type":"address","internalType":"address"}],"outputs":[{"name":"","type":"bool","internalType":"bool"}],"stateMutability":"view"},{"type":"function","name":"contents","inputs":[{"name":"","type":"uint256","internalType":"uint256"}],"outputs":[{"name":"id","type":"uint256","internalType":"uint256"},{"name":"creatorAddress","type":"address","internalType":"address"},{"name":"cType","type":"uint8","internalType":"enum CreatorHub.ContentType"},{"name":"metadataURI","type":"string","internalType":"string"},{"name":"isFree","type":"bool","internalType":"bool"},{"name":"fullPrice","type":"uint256","internalType":"uint256"},{"name":"rentedPrice","type":"uint256","internalType":"uint256"},{"name":"paymentToken","type":"address","internalType":"address"},{"name":"active","type":"bool","internalType":"bool"}],"stateMutability":"view"},{"type":"function","name":"createContent","inputs":[{"name":"cType","type":"uint8","internalType":"enum CreatorHub.ContentType"},{"name":"metadataURI","type":"string","internalType":"string"},{"name":"isFree","type":"bool","internalType":"bool"},{"name":"fullPrice","type":"uint256","internalType":"uint256"},{"name":"rentedPrice","type":"uint256","internalType":"uint256"},{"name":"paymentToken","type":"address","internalType":"address"}],"outputs":[{"name":"","type":"uint256","internalType":"uint256"}],"stateMutability":"nonpayable"},{"type":"function","name":"cret","inputs":[{"name":"","type":"address","internalType":"address"}],"outputs":[{"name":"name","type":"string","internalType":"string"},{"name":"wallet","type":"address","internalType":"address"},{"name":"isRegistered","type":"bool","internalType":"bool"},{"name":"subscriptionPrice","type":"uint256","internalType":"uint256"},{"name":"subscriberCount","type":"uint256","internalType":"uint256"},{"name":"totalEarnings","type":"uint256","internalType":"uint256"}],"stateMutability":"view"},{"type":"function","name":"getAllCreators","inputs":[],"outputs":[{"name":"","type":"tuple[]","internalType":"struct CreatorHub.Creator[]","components":[{"name":"name","type":"string","internalType":"string"},{"name":"wallet","type":"address","internalType":"address"},{"name":"isRegistered","type":"bool","internalType":"bool"},{"name":"subscriptionPrice","type":"uint256","internalType":"uint256"},{"name":"subscriberCount","type":"uint256","internalType":"uint256"},{"name":"totalEarnings","type":"uint256","internalType":"uint256"}]}],"stateMutability":"view"},{"type":"function","name":"getChannelName","inputs":[{"name":"_wallet","type":"address","internalType":"address"}],"outputs":[{"name":"","type":"string","internalType":"string"}],"stateMutability":"view"},{"type":"function","name":"getLatestContent","inputs":[{"name":"_limit","type":"uint256","internalType":"uint256"}],"outputs":[{"name":"","type":"tuple[]","internalType":"struct CreatorHub.Content[]","components":[{"name":"id","type":"uint256","internalType":"uint256"},{"name":"creatorAddress","type":"address","internalType":"address"},{"name":"cType","type":"uint8","internalType":"enum CreatorHub.ContentType"},{"name":"metadataURI","type":"string","internalType":"string"},{"name":"isFree","type":"bool","internalType":"bool"},{"name":"fullPrice","type":"uint256","internalType":"uint256"},{"name":"rentedPrice","type":"uint256","internalType":"uint256"},{"name":"paymentToken","type":"address","internalType":"address"},{"name":"active","type":"bool","internalType":"bool"}]}],"stateMutability":"view"},{"type":"function","name":"getLatestVideos","inputs":[{"name":"_limit","type":"uint256","internalType":"uint256"}],"outputs":[{"name":"","type":"tuple[]","internalType":"struct CreatorHub.Video[]","components":[{"name":"title","type":"string","internalType":"string"},{"name":"videoCID","type":"string","internalType":"string"},{"name":"thumbnailCID","type":"string","internalType":"string"},{"name":"uploader","type":"address","internalType":"address"},{"name":"timestamp","type":"uint256","internalType":"uint256"}]}],"stateMutability":"view"},{"type":"function","name":"nextContentId","inputs":[],"outputs":[{"name":"","type":"uint256","internalType":"uint256"}],"stateMutability":"view"},{"type":"function","name":"registerChannel","inputs":[{"name":"_name","type":"string","internalType":"string"}],"outputs":[],"stateMutability":"nonpayable"},{"type":"function","name":"setContentActive","inputs":[{"name":"contentId","type":"uint256","internalType":"uint256"},{"name":"status","type":"bool","internalType":"bool"}],"outputs":[],"stateMutability":"nonpayable"},{"type":"function","name":"setSubscriptionPrice","inputs":[{"name":"_price","type":"uint256","internalType":"uint256"}],"outputs":[],"stateMutability":"nonpayable"},{"type":"function","name":"subscribe","inputs":[{"name":"_creator","type":"address","internalType":"address"}],"outputs":[],"stateMutability":"payable"},{"type":"function","name":"subscriptions","inputs":[{"name":"","type":"address","internalType":"address"},{"name":"","type":"address","internalType":"address"}],"outputs":[{"name":"","type":"uint256","internalType":"uint256"}],"stateMutability":"view"},{"type":"function","name":"updateContent","inputs":[{"name":"contentId","type":"uint256","internalType":"uint256"},{"name":"cType","type":"uint8","internalType":"enum CreatorHub.ContentType"},{"name":"metadataURI","type":"string","internalType":"string"},{"name":"fullPrice","type":"uint256","internalType":"uint256"},{"name":"rentedPrice","type":"uint256","internalType":"uint256"},{"name":"paymentToken","type":"address","internalType":"address"},{"name":"isFree","type":"bool","internalType":"bool"}],"outputs":[],"stateMutability":"nonpayable"},{"type":"function","name":"uploadVideo","inputs":[{"name":"_title","type":"string","internalType":"string"},{"name":"_videoCID","type":"string","internalType":"string"},{"name":"_thumbnailCID","type":"string","internalType":"string"}],"outputs":[],"stateMutability":"nonpayable"},{"type":"event","name":"ChannelRegistered","inputs":[{"name":"wallet","type":"address","indexed":true,"internalType":"address"},{"name":"name","type":"string","indexed":false,"internalType":"string"}],"anonymous":false},{"type":"event","name":"ContentCreated","inputs":[{"name":"contentId","type":"uint256","indexed":true,"internalType":"uint256"},{"name":"creator","type":"address","indexed":true,"internalType":"address"},{"name":"metadataURI","type":"string","indexed":false,"internalType":"string"}],"anonymous":false},{"type":"event","name":"Subscribed","inputs":[{"name":"subscriber","type":"address","indexed":true,"internalType":"address"},{"name":"creator","type":"address","indexed":true,"internalType":"address"},{"name":"expiry","type":"uint256","indexed":false,"internalType":"uint256"}],"anonymous":false},{"type":"event","name":"SubscriptionPriceUpdated","inputs":[{"name":"creator","type":"address","indexed":true,"internalType":"address"},{"name":"newPrice","type":"uint256","indexed":false,"internalType":"uint256"}],"anonymous":false},{"type":"event","name":"VideoUploaded","inputs":[{"name":"videoId","type":"uint256","indexed":true,"internalType":"uint256"},{"name":"uploader","type":"address","indexed":true,"internalType":"address"},{"name":"title","type":"string","indexed":false,"internalType":"string"}],"anonymous":false}],"bytecode":{"object":"0x6080604052348015600e575f5ffd5b5061413a8061001c5f395ff3fe608060405260043610610113575f3560e01c80637eb67c311161009f578063b5ecf91211610063578063b5ecf912146103e2578063e457291914610426578063e5805fe014610466578063ead023471461048e578063f97fac4d146104ca57610113565b80637eb67c31146102b65780638799bd74146102f2578063888e5d9e1461032e578063aba6d14b1461036a578063acaebbf6146103a657610113565b806341a7726a116100e657806341a7726a146101cd5780634875e9fd146101e95780635093ab6d146102115780636207d31b146102525780637d556e751461028e57610113565b80630a248d7f146101175780630ca6c2f4146101415780631a5ee7791461017d5780632d58d0ee146101a5575b5f5ffd5b348015610122575f5ffd5b5061012b6104f4565b6040516101389190612894565b60405180910390f35b34801561014c575f5ffd5b50610167600480360381019061016291906128e8565b6104fa565b6040516101749190612894565b60405180910390f35b348015610188575f5ffd5b506101a3600480360381019061019e91906128e8565b61051a565b005b3480156101b0575f5ffd5b506101cb60048036038101906101c69190612a4f565b61063b565b005b6101e760048036038101906101e29190612af0565b6108e0565b005b3480156101f4575f5ffd5b5061020f600480360381019061020a9190612b1b565b610cd4565b005b34801561021c575f5ffd5b5061023760048036038101906102329190612af0565b610ec1565b60405161024996959493929190612c48565b60405180910390f35b34801561025d575f5ffd5b5061027860048036038101906102739190612cae565b610faa565b6040516102859190612894565b60405180910390f35b348015610299575f5ffd5b506102b460048036038101906102af9190612d16565b610fca565b005b3480156102c1575f5ffd5b506102dc60048036038101906102d79190612af0565b611121565b6040516102e99190612d54565b60405180910390f35b3480156102fd575f5ffd5b50610318600480360381019061031391906128e8565b61127f565b6040516103259190612f16565b60405180910390f35b348015610339575f5ffd5b50610354600480360381019061034f91906128e8565b6115e9565b6040516103619190612f36565b60405180910390f35b348015610375575f5ffd5b50610390600480360381019061038b9190612f72565b611624565b60405161039d9190612894565b60405180910390f35b3480156103b1575f5ffd5b506103cc60048036038101906103c791906128e8565b611ad8565b6040516103d99190613216565b60405180910390f35b3480156103ed575f5ffd5b50610408600480360381019061040391906128e8565b611e0e565b60405161041d99989796959493929190613245565b60405180910390f35b348015610431575f5ffd5b5061044c600480360381019061044791906128e8565b611f42565b60405161045d9594939291906132d7565b60405180910390f35b348015610471575f5ffd5b5061048c6004803603810190610487919061333d565b612134565b005b348015610499575f5ffd5b506104b460048036038101906104af9190612cae565b6124a4565b6040516104c191906133f6565b60405180910390f35b3480156104d5575f5ffd5b506104de612528565b6040516104eb9190613550565b60405180910390f35b60035481565b60058181548110610509575f80fd5b905f5260205f20015f915090505481565b5f5f3373ffffffffffffffffffffffffffffffffffffffff1673ffffffffffffffffffffffffffffffffffffffff1681526020019081526020015f2060010160149054906101000a900460ff166105a6576040517f08c379a000000000000000000000000000000000000000000000000000000000815260040161059d906135ba565b60405180910390fd5b805f5f3373ffffffffffffffffffffffffffffffffffffffff1673ffffffffffffffffffffffffffffffffffffffff1681526020019081526020015f20600201819055503373ffffffffffffffffffffffffffffffffffffffff167fb7f535c0f6a33f444bce1a5c432bbeef81b30471d8b193828baf43ef2b187083826040516106309190612894565b60405180910390a250565b5f81511161067e576040517f08c379a000000000000000000000000000000000000000000000000000000000815260040161067590613622565b60405180910390fd5b5f5f3373ffffffffffffffffffffffffffffffffffffffff1673ffffffffffffffffffffffffffffffffffffffff1681526020019081526020015f2060010160149054906101000a900460ff161561070b576040517f08c379a00000000000000000000000000000000000000000000000000000000081526004016107029061368a565b60405180910390fd5b6040518060c001604052808281526020013373ffffffffffffffffffffffffffffffffffffffff16815260200160011515815260200166038d7ea4c6800081526020015f81526020015f8152505f5f3373ffffffffffffffffffffffffffffffffffffffff1673ffffffffffffffffffffffffffffffffffffffff1681526020019081526020015f205f820151815f0190816107a791906138a5565b506020820151816001015f6101000a81548173ffffffffffffffffffffffffffffffffffffffff021916908373ffffffffffffffffffffffffffffffffffffffff16021790555060408201518160010160146101000a81548160ff021916908315150217905550606082015181600201556080820151816003015560a08201518160040155905050600633908060018154018082558091505060019003905f5260205f20015f9091909190916101000a81548173ffffffffffffffffffffffffffffffffffffffff021916908373ffffffffffffffffffffffffffffffffffffffff1602179055503373ffffffffffffffffffffffffffffffffffffffff167f276ae62e19d992282d28a4512c2330337f38c431d6cb0a190266eb7899ffb14b826040516108d59190612d54565b60405180910390a250565b5f5f8273ffffffffffffffffffffffffffffffffffffffff1673ffffffffffffffffffffffffffffffffffffffff1681526020019081526020015f2060010160149054906101000a900460ff1661096c576040517f08c379a0000000000000000000000000000000000000000000000000000000008152600401610963906139be565b60405180910390fd5b5f5f8273ffffffffffffffffffffffffffffffffffffffff1673ffffffffffffffffffffffffffffffffffffffff1681526020019081526020015f20600201543410156109ee576040517f08c379a00000000000000000000000000000000000000000000000000000000081526004016109e590613a26565b60405180910390fd5b5f60015f3373ffffffffffffffffffffffffffffffffffffffff1673ffffffffffffffffffffffffffffffffffffffff1681526020019081526020015f205f8373ffffffffffffffffffffffffffffffffffffffff1673ffffffffffffffffffffffffffffffffffffffff1681526020019081526020015f205490505f42821115610a895762278d0082610a829190613a71565b9050610a9b565b62278d0042610a989190613a71565b90505b8060015f3373ffffffffffffffffffffffffffffffffffffffff1673ffffffffffffffffffffffffffffffffffffffff1681526020019081526020015f205f8573ffffffffffffffffffffffffffffffffffffffff1673ffffffffffffffffffffffffffffffffffffffff1681526020019081526020015f20819055505f8373ffffffffffffffffffffffffffffffffffffffff1634604051610b3d90613ad1565b5f6040518083038185875af1925050503d805f8114610b77576040519150601f19603f3d011682016040523d82523d5f602084013e610b7c565b606091505b5050905080610bc0576040517f08c379a0000000000000000000000000000000000000000000000000000000008152600401610bb790613b2f565b60405180910390fd5b5f5f8573ffffffffffffffffffffffffffffffffffffffff1673ffffffffffffffffffffffffffffffffffffffff1681526020019081526020015f206003015f815480929190610c0f90613b4d565b9190505550345f5f8673ffffffffffffffffffffffffffffffffffffffff1673ffffffffffffffffffffffffffffffffffffffff1681526020019081526020015f206004015f828254610c629190613a71565b925050819055508373ffffffffffffffffffffffffffffffffffffffff163373ffffffffffffffffffffffffffffffffffffffff167f1299b0ad0a8e7c2403716ae6507195ba96bd8cac7f49d8c129e18f9ae51374f084604051610cc69190612894565b60405180910390a350505050565b5f5f3373ffffffffffffffffffffffffffffffffffffffff1673ffffffffffffffffffffffffffffffffffffffff1681526020019081526020015f2060010160149054906101000a900460ff16610d60576040517f08c379a0000000000000000000000000000000000000000000000000000000008152600401610d5790613bde565b60405180910390fd5b5f6040518060a001604052808581526020018481526020018381526020013373ffffffffffffffffffffffffffffffffffffffff168152602001428152509050600281908060018154018082558091505060019003905f5260205f2090600502015f909190919091505f820151815f019081610ddc91906138a5565b506020820151816001019081610df291906138a5565b506040820151816002019081610e0891906138a5565b506060820151816003015f6101000a81548173ffffffffffffffffffffffffffffffffffffffff021916908373ffffffffffffffffffffffffffffffffffffffff1602179055506080820151816004015550503373ffffffffffffffffffffffffffffffffffffffff166001600280549050610e849190613bfc565b7f914131121ce37b9b876b9e7ff21f008ec2799db04096a542b4b7e67f80af1d1386604051610eb39190612d54565b60405180910390a350505050565b5f602052805f5260405f205f91509050805f018054610edf906136d5565b80601f0160208091040260200160405190810160405280929190818152602001828054610f0b906136d5565b8015610f565780601f10610f2d57610100808354040283529160200191610f56565b820191905f5260205f20905b815481529060010190602001808311610f3957829003601f168201915b505050505090806001015f9054906101000a900473ffffffffffffffffffffffffffffffffffffffff16908060010160149054906101000a900460ff16908060020154908060030154908060040154905086565b6001602052815f5260405f20602052805f5260405f205f91509150505481565b5f60045f8481526020019081526020015f2090505f73ffffffffffffffffffffffffffffffffffffffff16816001015f9054906101000a900473ffffffffffffffffffffffffffffffffffffffff1673ffffffffffffffffffffffffffffffffffffffff160361106f576040517f08c379a000000000000000000000000000000000000000000000000000000000815260040161106690613c79565b60405180910390fd5b3373ffffffffffffffffffffffffffffffffffffffff16816001015f9054906101000a900473ffffffffffffffffffffffffffffffffffffffff1673ffffffffffffffffffffffffffffffffffffffff1614611100576040517f08c379a00000000000000000000000000000000000000000000000000000000081526004016110f790613d07565b60405180910390fd5b818160060160146101000a81548160ff021916908315150217905550505050565b60605f5f8373ffffffffffffffffffffffffffffffffffffffff1673ffffffffffffffffffffffffffffffffffffffff1681526020019081526020015f2060010160149054906101000a900460ff1615611241575f5f8373ffffffffffffffffffffffffffffffffffffffff1673ffffffffffffffffffffffffffffffffffffffff1681526020019081526020015f205f0180546111be906136d5565b80601f01602080910402602001604051908101604052809291908181526020018280546111ea906136d5565b80156112355780601f1061120c57610100808354040283529160200191611235565b820191905f5260205f20905b81548152906001019060200180831161121857829003601f168201915b5050505050905061127a565b6040518060400160405280600f81526020017f556e6b6e6f776e204368616e6e656c000000000000000000000000000000000081525090505b919050565b60605f60028054905090505f81036112ed575f67ffffffffffffffff8111156112ab576112aa61292b565b5b6040519080825280602002602001820160405280156112e457816020015b6112d161276a565b8152602001906001900390816112c95790505b509150506115e4565b5f839050818111156112fd578190505b5f8167ffffffffffffffff8111156113185761131761292b565b5b60405190808252806020026020018201604052801561135157816020015b61133e61276a565b8152602001906001900390816113365790505b5090505f5f90505b828110156115dc576002816001866113719190613bfc565b61137b9190613bfc565b8154811061138c5761138b613d25565b5b905f5260205f2090600502016040518060a00160405290815f820180546113b2906136d5565b80601f01602080910402602001604051908101604052809291908181526020018280546113de906136d5565b80156114295780601f1061140057610100808354040283529160200191611429565b820191905f5260205f20905b81548152906001019060200180831161140c57829003601f168201915b50505050508152602001600182018054611442906136d5565b80601f016020809104026020016040519081016040528092919081815260200182805461146e906136d5565b80156114b95780601f10611490576101008083540402835291602001916114b9565b820191905f5260205f20905b81548152906001019060200180831161149c57829003601f168201915b505050505081526020016002820180546114d2906136d5565b80601f01602080910402602001604051908101604052809291908181526020018280546114fe906136d5565b80156115495780601f1061152057610100808354040283529160200191611549565b820191905f5260205f20905b81548152906001019060200180831161152c57829003601f168201915b50505050508152602001600382015f9054906101000a900473ffffffffffffffffffffffffffffffffffffffff1673ffffffffffffffffffffffffffffffffffffffff1673ffffffffffffffffffffffffffffffffffffffff1681526020016004820154815250508282815181106115c4576115c3613d25565b5b60200260200101819052508080600101915050611359565b508093505050505b919050565b600681815481106115f8575f80fd5b905f5260205f20015f915054906101000a900473ffffffffffffffffffffffffffffffffffffffff1681565b5f5f5f3373ffffffffffffffffffffffffffffffffffffffff1673ffffffffffffffffffffffffffffffffffffffff1681526020019081526020015f2060010160149054906101000a900460ff166116b1576040517f08c379a00000000000000000000000000000000000000000000000000000000081526004016116a890613dc2565b60405180910390fd5b5f8651116116f4576040517f08c379a00000000000000000000000000000000000000000000000000000000081526004016116eb90613e2a565b60405180910390fd5b8415611783575f841461173c576040517f08c379a000000000000000000000000000000000000000000000000000000000815260040161173390613e92565b60405180910390fd5b5f831461177e576040517f08c379a000000000000000000000000000000000000000000000000000000000815260040161177590613f20565b60405180910390fd5b611877565b5f73ffffffffffffffffffffffffffffffffffffffff168273ffffffffffffffffffffffffffffffffffffffff16036117f1576040517f08c379a00000000000000000000000000000000000000000000000000000000081526004016117e890613f88565b60405180910390fd5b5f8311611833576040517f08c379a000000000000000000000000000000000000000000000000000000000815260040161182a90613ff0565b60405180910390fd5b82841015611876576040517f08c379a000000000000000000000000000000000000000000000000000000000815260040161186d90614058565b60405180910390fd5b5b5f60035f81548092919061188a90613b4d565b919050559050600581908060018154018082558091505060019003905f5260205f20015f90919091909150556040518061012001604052808281526020013373ffffffffffffffffffffffffffffffffffffffff1681526020018960058111156118f7576118f6613040565b5b815260200188815260200187151581526020018681526020018581526020018473ffffffffffffffffffffffffffffffffffffffff1681526020016001151581525060045f8381526020019081526020015f205f820151815f01556020820151816001015f6101000a81548173ffffffffffffffffffffffffffffffffffffffff021916908373ffffffffffffffffffffffffffffffffffffffff16021790555060408201518160010160146101000a81548160ff021916908360058111156119c3576119c2613040565b5b021790555060608201518160020190816119dd91906138a5565b506080820151816003015f6101000a81548160ff02191690831515021790555060a0820151816004015560c0820151816005015560e0820151816006015f6101000a81548173ffffffffffffffffffffffffffffffffffffffff021916908373ffffffffffffffffffffffffffffffffffffffff1602179055506101008201518160060160146101000a81548160ff0219169083151502179055509050503373ffffffffffffffffffffffffffffffffffffffff16817fbacf9f620fd10df5b39931f2a3012e753be545aba5d7642b9bdb59b527709f1d89604051611ac29190612d54565b60405180910390a3809150509695505050505050565b60605f60058054905090505f8103611b46575f67ffffffffffffffff811115611b0457611b0361292b565b5b604051908082528060200260200182016040528015611b3d57816020015b611b2a6127ad565b815260200190600190039081611b225790505b50915050611e09565b5f83905081811115611b56578190505b5f8167ffffffffffffffff811115611b7157611b7061292b565b5b604051908082528060200260200182016040528015611baa57816020015b611b976127ad565b815260200190600190039081611b8f5790505b5090505f5f90505b82811015611e01575f600582600187611bcb9190613bfc565b611bd59190613bfc565b81548110611be657611be5613d25565b5b905f5260205f200154905060045f8281526020019081526020015f20604051806101200160405290815f8201548152602001600182015f9054906101000a900473ffffffffffffffffffffffffffffffffffffffff1673ffffffffffffffffffffffffffffffffffffffff1673ffffffffffffffffffffffffffffffffffffffff1681526020016001820160149054906101000a900460ff166005811115611c9157611c90613040565b5b6005811115611ca357611ca2613040565b5b8152602001600282018054611cb7906136d5565b80601f0160208091040260200160405190810160405280929190818152602001828054611ce3906136d5565b8015611d2e5780601f10611d0557610100808354040283529160200191611d2e565b820191905f5260205f20905b815481529060010190602001808311611d1157829003601f168201915b50505050508152602001600382015f9054906101000a900460ff161515151581526020016004820154815260200160058201548152602001600682015f9054906101000a900473ffffffffffffffffffffffffffffffffffffffff1673ffffffffffffffffffffffffffffffffffffffff1673ffffffffffffffffffffffffffffffffffffffff1681526020016006820160149054906101000a900460ff161515151581525050838381518110611de857611de7613d25565b5b6020026020010181905250508080600101915050611bb2565b508093505050505b919050565b6004602052805f5260405f205f91509050805f015490806001015f9054906101000a900473ffffffffffffffffffffffffffffffffffffffff16908060010160149054906101000a900460ff1690806002018054611e6b906136d5565b80601f0160208091040260200160405190810160405280929190818152602001828054611e97906136d5565b8015611ee25780601f10611eb957610100808354040283529160200191611ee2565b820191905f5260205f20905b815481529060010190602001808311611ec557829003601f168201915b505050505090806003015f9054906101000a900460ff1690806004015490806005015490806006015f9054906101000a900473ffffffffffffffffffffffffffffffffffffffff16908060060160149054906101000a900460ff16905089565b60028181548110611f51575f80fd5b905f5260205f2090600502015f91509050805f018054611f70906136d5565b80601f0160208091040260200160405190810160405280929190818152602001828054611f9c906136d5565b8015611fe75780601f10611fbe57610100808354040283529160200191611fe7565b820191905f5260205f20905b815481529060010190602001808311611fca57829003601f168201915b505050505090806001018054611ffc906136d5565b80601f0160208091040260200160405190810160405280929190818152602001828054612028906136d5565b80156120735780601f1061204a57610100808354040283529160200191612073565b820191905f5260205f20905b81548152906001019060200180831161205657829003601f168201915b505050505090806002018054612088906136d5565b80601f01602080910402602001604051908101604052809291908181526020018280546120b4906136d5565b80156120ff5780601f106120d6576101008083540402835291602001916120ff565b820191905f5260205f20905b8154815290600101906020018083116120e257829003601f168201915b505050505090806003015f9054906101000a900473ffffffffffffffffffffffffffffffffffffffff16908060040154905085565b5f60045f8981526020019081526020015f2090505f73ffffffffffffffffffffffffffffffffffffffff16816001015f9054906101000a900473ffffffffffffffffffffffffffffffffffffffff1673ffffffffffffffffffffffffffffffffffffffff16036121d9576040517f08c379a00000000000000000000000000000000000000000000000000000000081526004016121d090613c79565b60405180910390fd5b3373ffffffffffffffffffffffffffffffffffffffff16816001015f9054906101000a900473ffffffffffffffffffffffffffffffffffffffff1673ffffffffffffffffffffffffffffffffffffffff161461226a576040517f08c379a0000000000000000000000000000000000000000000000000000000008152600401612261906140e6565b60405180910390fd5b81156122f9575f85146122b2576040517f08c379a00000000000000000000000000000000000000000000000000000000081526004016122a990613e92565b60405180910390fd5b5f84146122f4576040517f08c379a00000000000000000000000000000000000000000000000000000000081526004016122eb90613f20565b60405180910390fd5b6123ed565b5f73ffffffffffffffffffffffffffffffffffffffff168373ffffffffffffffffffffffffffffffffffffffff1603612367576040517f08c379a000000000000000000000000000000000000000000000000000000000815260040161235e90613f88565b60405180910390fd5b5f84116123a9576040517f08c379a00000000000000000000000000000000000000000000000000000000081526004016123a090613ff0565b60405180910390fd5b838510156123ec576040517f08c379a00000000000000000000000000000000000000000000000000000000081526004016123e390614058565b60405180910390fd5b5b868160010160146101000a81548160ff0219169083600581111561241457612413613040565b5b02179055508581600201908161242a91906138a5565b5081816003015f6101000a81548160ff02191690831515021790555084816004018190555083816005018190555082816006015f6101000a81548173ffffffffffffffffffffffffffffffffffffffff021916908373ffffffffffffffffffffffffffffffffffffffff1602179055505050505050505050565b5f4260015f8573ffffffffffffffffffffffffffffffffffffffff1673ffffffffffffffffffffffffffffffffffffffff1681526020019081526020015f205f8473ffffffffffffffffffffffffffffffffffffffff1673ffffffffffffffffffffffffffffffffffffffff1681526020019081526020015f205411905092915050565b60605f60068054905090505f8167ffffffffffffffff81111561254e5761254d61292b565b5b60405190808252806020026020018201604052801561258757816020015b612574612833565b81526020019060019003908161256c5790505b5090505f5f90505b82811015612761575f5f600683815481106125ad576125ac613d25565b5b905f5260205f20015f9054906101000a900473ffffffffffffffffffffffffffffffffffffffff1673ffffffffffffffffffffffffffffffffffffffff1673ffffffffffffffffffffffffffffffffffffffff1681526020019081526020015f206040518060c00160405290815f82018054612628906136d5565b80601f0160208091040260200160405190810160405280929190818152602001828054612654906136d5565b801561269f5780601f106126765761010080835404028352916020019161269f565b820191905f5260205f20905b81548152906001019060200180831161268257829003601f168201915b50505050508152602001600182015f9054906101000a900473ffffffffffffffffffffffffffffffffffffffff1673ffffffffffffffffffffffffffffffffffffffff1673ffffffffffffffffffffffffffffffffffffffff1681526020016001820160149054906101000a900460ff16151515158152602001600282015481526020016003820154815260200160048201548152505082828151811061274957612748613d25565b5b6020026020010181905250808060010191505061258f565b50809250505090565b6040518060a001604052806060815260200160608152602001606081526020015f73ffffffffffffffffffffffffffffffffffffffff1681526020015f81525090565b6040518061012001604052805f81526020015f73ffffffffffffffffffffffffffffffffffffffff1681526020015f60058111156127ee576127ed613040565b5b8152602001606081526020015f151581526020015f81526020015f81526020015f73ffffffffffffffffffffffffffffffffffffffff1681526020015f151581525090565b6040518060c00160405280606081526020015f73ffffffffffffffffffffffffffffffffffffffff1681526020015f151581526020015f81526020015f81526020015f81525090565b5f819050919050565b61288e8161287c565b82525050565b5f6020820190506128a75f830184612885565b92915050565b5f604051905090565b5f5ffd5b5f5ffd5b6128c78161287c565b81146128d1575f5ffd5b50565b5f813590506128e2816128be565b92915050565b5f602082840312156128fd576128fc6128b6565b5b5f61290a848285016128d4565b91505092915050565b5f5ffd5b5f5ffd5b5f601f19601f8301169050919050565b7f4e487b71000000000000000000000000000000000000000000000000000000005f52604160045260245ffd5b6129618261291b565b810181811067ffffffffffffffff821117156129805761297f61292b565b5b80604052505050565b5f6129926128ad565b905061299e8282612958565b919050565b5f67ffffffffffffffff8211156129bd576129bc61292b565b5b6129c68261291b565b9050602081019050919050565b828183375f83830152505050565b5f6129f36129ee846129a3565b612989565b905082815260208101848484011115612a0f57612a0e612917565b5b612a1a8482856129d3565b509392505050565b5f82601f830112612a3657612a35612913565b5b8135612a468482602086016129e1565b91505092915050565b5f60208284031215612a6457612a636128b6565b5b5f82013567ffffffffffffffff811115612a8157612a806128ba565b5b612a8d84828501612a22565b91505092915050565b5f73ffffffffffffffffffffffffffffffffffffffff82169050919050565b5f612abf82612a96565b9050919050565b612acf81612ab5565b8114612ad9575f5ffd5b50565b5f81359050612aea81612ac6565b92915050565b5f60208284031215612b0557612b046128b6565b5b5f612b1284828501612adc565b91505092915050565b5f5f5f60608486031215612b3257612b316128b6565b5b5f84013567ffffffffffffffff811115612b4f57612b4e6128ba565b5b612b5b86828701612a22565b935050602084013567ffffffffffffffff811115612b7c57612b7b6128ba565b5b612b8886828701612a22565b925050604084013567ffffffffffffffff811115612ba957612ba86128ba565b5b612bb586828701612a22565b9150509250925092565b5f81519050919050565b5f82825260208201905092915050565b8281835e5f83830152505050565b5f612bf182612bbf565b612bfb8185612bc9565b9350612c0b818560208601612bd9565b612c148161291b565b840191505092915050565b612c2881612ab5565b82525050565b5f8115159050919050565b612c4281612c2e565b82525050565b5f60c0820190508181035f830152612c608189612be7565b9050612c6f6020830188612c1f565b612c7c6040830187612c39565b612c896060830186612885565b612c966080830185612885565b612ca360a0830184612885565b979650505050505050565b5f5f60408385031215612cc457612cc36128b6565b5b5f612cd185828601612adc565b9250506020612ce285828601612adc565b9150509250929050565b612cf581612c2e565b8114612cff575f5ffd5b50565b5f81359050612d1081612cec565b92915050565b5f5f60408385031215612d2c57612d2b6128b6565b5b5f612d39858286016128d4565b9250506020612d4a85828601612d02565b9150509250929050565b5f6020820190508181035f830152612d6c8184612be7565b905092915050565b5f81519050919050565b5f82825260208201905092915050565b5f819050602082019050919050565b5f82825260208201905092915050565b5f612db782612bbf565b612dc18185612d9d565b9350612dd1818560208601612bd9565b612dda8161291b565b840191505092915050565b612dee81612ab5565b82525050565b612dfd8161287c565b82525050565b5f60a083015f8301518482035f860152612e1d8282612dad565b91505060208301518482036020860152612e378282612dad565b91505060408301518482036040860152612e518282612dad565b9150506060830151612e666060860182612de5565b506080830151612e796080860182612df4565b508091505092915050565b5f612e8f8383612e03565b905092915050565b5f602082019050919050565b5f612ead82612d74565b612eb78185612d7e565b935083602082028501612ec985612d8e565b805f5b85811015612f045784840389528151612ee58582612e84565b9450612ef083612e97565b925060208a01995050600181019050612ecc565b50829750879550505050505092915050565b5f6020820190508181035f830152612f2e8184612ea3565b905092915050565b5f602082019050612f495f830184612c1f565b92915050565b60068110612f5b575f5ffd5b50565b5f81359050612f6c81612f4f565b92915050565b5f5f5f5f5f5f60c08789031215612f8c57612f8b6128b6565b5b5f612f9989828a01612f5e565b965050602087013567ffffffffffffffff811115612fba57612fb96128ba565b5b612fc689828a01612a22565b9550506040612fd789828a01612d02565b9450506060612fe889828a016128d4565b9350506080612ff989828a016128d4565b92505060a061300a89828a01612adc565b9150509295509295509295565b5f81519050919050565b5f82825260208201905092915050565b5f819050602082019050919050565b7f4e487b71000000000000000000000000000000000000000000000000000000005f52602160045260245ffd5b6006811061307e5761307d613040565b5b50565b5f81905061308e8261306d565b919050565b5f61309d82613081565b9050919050565b6130ad81613093565b82525050565b6130bc81612c2e565b82525050565b5f61012083015f8301516130d85f860182612df4565b5060208301516130eb6020860182612de5565b5060408301516130fe60408601826130a4565b50606083015184820360608601526131168282612dad565b915050608083015161312b60808601826130b3565b5060a083015161313e60a0860182612df4565b5060c083015161315160c0860182612df4565b5060e083015161316460e0860182612de5565b506101008301516131796101008601826130b3565b508091505092915050565b5f61318f83836130c2565b905092915050565b5f602082019050919050565b5f6131ad82613017565b6131b78185613021565b9350836020820285016131c985613031565b805f5b8581101561320457848403895281516131e58582613184565b94506131f083613197565b925060208a019950506001810190506131cc565b50829750879550505050505092915050565b5f6020820190508181035f83015261322e81846131a3565b905092915050565b61323f81613093565b82525050565b5f610120820190506132595f83018c612885565b613266602083018b612c1f565b613273604083018a613236565b81810360608301526132858189612be7565b90506132946080830188612c39565b6132a160a0830187612885565b6132ae60c0830186612885565b6132bb60e0830185612c1f565b6132c9610100830184612c39565b9a9950505050505050505050565b5f60a0820190508181035f8301526132ef8188612be7565b905081810360208301526133038187612be7565b905081810360408301526133178186612be7565b90506133266060830185612c1f565b6133336080830184612885565b9695505050505050565b5f5f5f5f5f5f5f60e0888a031215613358576133576128b6565b5b5f6133658a828b016128d4565b97505060206133768a828b01612f5e565b965050604088013567ffffffffffffffff811115613397576133966128ba565b5b6133a38a828b01612a22565b95505060606133b48a828b016128d4565b94505060806133c58a828b016128d4565b93505060a06133d68a828b01612adc565b92505060c06133e78a828b01612d02565b91505092959891949750929550565b5f6020820190506134095f830184612c39565b92915050565b5f81519050919050565b5f82825260208201905092915050565b5f819050602082019050919050565b5f60c083015f8301518482035f8601526134528282612dad565b91505060208301516134676020860182612de5565b50604083015161347a60408601826130b3565b50606083015161348d6060860182612df4565b5060808301516134a06080860182612df4565b5060a08301516134b360a0860182612df4565b508091505092915050565b5f6134c98383613438565b905092915050565b5f602082019050919050565b5f6134e78261340f565b6134f18185613419565b93508360208202850161350385613429565b805f5b8581101561353e578484038952815161351f85826134be565b945061352a836134d1565b925060208a01995050600181019050613506565b50829750879550505050505092915050565b5f6020820190508181035f83015261356881846134dd565b905092915050565b7f4e6f7420726567697374657265640000000000000000000000000000000000005f82015250565b5f6135a4600e83612bc9565b91506135af82613570565b602082019050919050565b5f6020820190508181035f8301526135d181613598565b9050919050565b7f4e616d65207265717569726564000000000000000000000000000000000000005f82015250565b5f61360c600d83612bc9565b9150613617826135d8565b602082019050919050565b5f6020820190508181035f83015261363981613600565b9050919050565b7f416c7265616479207265676973746572656400000000000000000000000000005f82015250565b5f613674601283612bc9565b915061367f82613640565b602082019050919050565b5f6020820190508181035f8301526136a181613668565b9050919050565b7f4e487b71000000000000000000000000000000000000000000000000000000005f52602260045260245ffd5b5f60028204905060018216806136ec57607f821691505b6020821081036136ff576136fe6136a8565b5b50919050565b5f819050815f5260205f209050919050565b5f6020601f8301049050919050565b5f82821b905092915050565b5f600883026137617fffffffffffffffffffffffffffffffffffffffffffffffffffffffffffffffff82613726565b61376b8683613726565b95508019841693508086168417925050509392505050565b5f819050919050565b5f6137a66137a161379c8461287c565b613783565b61287c565b9050919050565b5f819050919050565b6137bf8361378c565b6137d36137cb826137ad565b848454613732565b825550505050565b5f5f905090565b6137ea6137db565b6137f58184846137b6565b505050565b5b818110156138185761380d5f826137e2565b6001810190506137fb565b5050565b601f82111561385d5761382e81613705565b61383784613717565b81016020851015613846578190505b61385a61385285613717565b8301826137fa565b50505b505050565b5f82821c905092915050565b5f61387d5f1984600802613862565b1980831691505092915050565b5f613895838361386e565b9150826002028217905092915050565b6138ae82612bbf565b67ffffffffffffffff8111156138c7576138c661292b565b5b6138d182546136d5565b6138dc82828561381c565b5f60209050601f83116001811461390d575f84156138fb578287015190505b613905858261388a565b86555061396c565b601f19841661391b86613705565b5f5b828110156139425784890151825560018201915060208501945060208101905061391d565b8683101561395f578489015161395b601f89168261386e565b8355505b6001600288020188555050505b505050505050565b7f43726561746f72206e6f742072656769737465726564000000000000000000005f82015250565b5f6139a8601683612bc9565b91506139b382613974565b602082019050919050565b5f6020820190508181035f8301526139d58161399c565b9050919050565b7f496e73756666696369656e74207061796d656e740000000000000000000000005f82015250565b5f613a10601483612bc9565b9150613a1b826139dc565b602082019050919050565b5f6020820190508181035f830152613a3d81613a04565b9050919050565b7f4e487b71000000000000000000000000000000000000000000000000000000005f52601160045260245ffd5b5f613a7b8261287c565b9150613a868361287c565b9250828201905080821115613a9e57613a9d613a44565b5b92915050565b5f81905092915050565b50565b5f613abc5f83613aa4565b9150613ac782613aae565b5f82019050919050565b5f613adb82613ab1565b9150819050919050565b7f4661696c656420746f2073656e642045746865720000000000000000000000005f82015250565b5f613b19601483612bc9565b9150613b2482613ae5565b602082019050919050565b5f6020820190508181035f830152613b4681613b0d565b9050919050565b5f613b578261287c565b91507fffffffffffffffffffffffffffffffffffffffffffffffffffffffffffffffff8203613b8957613b88613a44565b5b600182019050919050565b7f4d757374207265676973746572206368616e6e656c20666972737400000000005f82015250565b5f613bc8601b83612bc9565b9150613bd382613b94565b602082019050919050565b5f6020820190508181035f830152613bf581613bbc565b9050919050565b5f613c068261287c565b9150613c118361287c565b9250828203905081811115613c2957613c28613a44565b5b92915050565b7f436f6e74656e7420646f6573206e6f74206578697374000000000000000000005f82015250565b5f613c63601683612bc9565b9150613c6e82613c2f565b602082019050919050565b5f6020820190508181035f830152613c9081613c57565b9050919050565b7f4f6e6c792074686520636f6e74656e742063726561746f722063616e207570645f8201527f6174652069747320737461747573000000000000000000000000000000000000602082015250565b5f613cf1602e83612bc9565b9150613cfc82613c97565b604082019050919050565b5f6020820190508181035f830152613d1e81613ce5565b9050919050565b7f4e487b71000000000000000000000000000000000000000000000000000000005f52603260045260245ffd5b7f4f6e6c7920726567697374657265642063726561746f72732063616e206372655f8201527f61746520636f6e74656e74000000000000000000000000000000000000000000602082015250565b5f613dac602b83612bc9565b9150613db782613d52565b604082019050919050565b5f6020820190508181035f830152613dd981613da0565b9050919050565b7f496e76616c6964206d65746164617461555249000000000000000000000000005f82015250565b5f613e14601383612bc9565b9150613e1f82613de0565b602082019050919050565b5f6020820190508181035f830152613e4181613e08565b9050919050565b7f4672656520636f6e74656e742066756c6c5072696365206d75737420626520305f82015250565b5f613e7c602083612bc9565b9150613e8782613e48565b602082019050919050565b5f6020820190508181035f830152613ea981613e70565b9050919050565b7f4672656520636f6e74656e742072656e7465645072696365206d7573742062655f8201527f2030000000000000000000000000000000000000000000000000000000000000602082015250565b5f613f0a602283612bc9565b9150613f1582613eb0565b604082019050919050565b5f6020820190508181035f830152613f3781613efe565b9050919050565b7f5061796d656e7420746f6b656e207265717569726564000000000000000000005f82015250565b5f613f72601683612bc9565b9150613f7d82613f3e565b602082019050919050565b5f6020820190508181035f830152613f9f81613f66565b9050919050565b7f72656e7465645072696365206d757374206265203e20300000000000000000005f82015250565b5f613fda601783612bc9565b9150613fe582613fa6565b602082019050919050565b5f6020820190508181035f83015261400781613fce565b9050919050565b7f66756c6c5072696365206d757374206265203e3d2072656e74656450726963655f82015250565b5f614042602083612bc9565b915061404d8261400e565b602082019050919050565b5f6020820190508181035f83015261406f81614036565b9050919050565b7f4f6e6c792074686520636f6e74656e742063726561746f722063616e207570645f8201527f6174650000000000000000000000000000000000000000000000000000000000602082015250565b5f6140d0602383612bc9565b91506140db82614076565b604082019050919050565b5f6020820190508181035f8301526140fd816140c4565b905091905056fea2646970667358221220f3642c9cd89bf951f485d2e1c3aade5a4ec34e9d54d9c1b684ea019d497e0dbd64736f6c634300081e0033","linkReferences":{}},"methodIdentifiers":{"allContentIds(uint256)":"0ca6c2f4","allCreators(uint256)":"888e5d9e","allVideos(uint256)":"e4572919","checkSubscription(address,address)":"ead02347","contents(uint256)":"b5ecf912","createContent(uint8,string,bool,uint256,uint256,address)":"aba6d14b","cret(address)":"5093ab6d","getAllCreators()":"f97fac4d","getChannelName(address)":"7eb67c31","getLatestContent(uint256)":"acaebbf6","getLatestVideos(uint256)":"8799bd74","nextContentId()":"0a248d7f","registerChannel(string)":"2d58d0ee","setContentActive(uint256,bool)":"7d556e75","setSubscriptionPrice(uint256)":"1a5ee779","subscribe(address)":"41a7726a","subscriptions(address,address)":"6207d31b","updateContent(uint256,uint8,string,uint256,uint256,address,bool)":"e5805fe0","uploadVideo(string,string,string)":"4875e9fd"},"id":16}